{
  "contractName": "Users",
  "abi": [
    {
      "inputs": [],
      "name": "_userCount",
      "outputs": [
        {
          "internalType": "uint256",
          "name": "",
          "type": "uint256"
        }
      ],
      "stateMutability": "view",
      "type": "function",
      "constant": true
    },
    {
      "inputs": [
        {
          "internalType": "address",
          "name": "",
          "type": "address"
        }
      ],
      "name": "_users",
      "outputs": [
        {
          "internalType": "string",
          "name": "_firstname",
          "type": "string"
        },
        {
          "internalType": "string",
          "name": "_lastname",
          "type": "string"
        },
        {
          "internalType": "string",
          "name": "_email",
          "type": "string"
        },
        {
          "internalType": "uint256",
          "name": "_age",
          "type": "uint256"
        }
      ],
      "stateMutability": "view",
      "type": "function",
      "constant": true
    },
    {
      "inputs": [
        {
          "internalType": "string",
          "name": "_firstname",
          "type": "string"
        },
        {
          "internalType": "string",
          "name": "_lastname",
          "type": "string"
        },
        {
          "internalType": "string",
          "name": "_email",
          "type": "string"
        },
        {
          "internalType": "uint256",
          "name": "_age",
          "type": "uint256"
        }
      ],
      "name": "addUser",
      "outputs": [],
      "stateMutability": "nonpayable",
      "type": "function"
    },
    {
      "inputs": [
        {
          "internalType": "string",
          "name": "_firstname",
          "type": "string"
        },
        {
          "internalType": "string",
          "name": "_lastname",
          "type": "string"
        },
        {
          "internalType": "string",
          "name": "_email",
          "type": "string"
        },
        {
          "internalType": "uint256",
          "name": "_age",
          "type": "uint256"
        }
      ],
      "name": "modifyUser",
      "outputs": [],
      "stateMutability": "nonpayable",
      "type": "function"
    },
    {
      "inputs": [],
      "name": "getUser",
      "outputs": [
        {
          "components": [
            {
              "internalType": "string",
              "name": "_firstname",
              "type": "string"
            },
            {
              "internalType": "string",
              "name": "_lastname",
              "type": "string"
            },
            {
              "internalType": "string",
              "name": "_email",
              "type": "string"
            },
            {
              "internalType": "uint256",
              "name": "_age",
              "type": "uint256"
            }
          ],
          "internalType": "struct Users.User",
          "name": "",
          "type": "tuple"
        }
      ],
      "stateMutability": "view",
      "type": "function",
      "constant": true
    },
    {
      "inputs": [],
      "name": "getUserCount",
      "outputs": [
        {
          "internalType": "uint256",
          "name": "",
          "type": "uint256"
        }
      ],
      "stateMutability": "view",
      "type": "function",
      "constant": true
    }
  ],
  "bytecode": "0x60806040526000805534801561001457600080fd5b506110f5806100246000396000f3fe608060405234801561001057600080fd5b50600436106100625760003560e01c80633cacd7d6146100675780634f7484fe1461009a5780637de60fb9146100b8578063832880e7146100d457806389a8f927146100f2578063b5cb15f71461010e575b600080fd5b610081600480360381019061007c919061083f565b61012c565b6040516100919493929190610915565b60405180910390f35b6100a26102f4565b6040516100af919061096f565b60405180910390f35b6100d260048036038101906100cd9190610aeb565b6102fa565b005b6100dc61044b565b6040516100e99190610c70565b60405180910390f35b61010c60048036038101906101079190610aeb565b610662565b005b61011661079c565b604051610123919061096f565b60405180910390f35b600160205280600052604060002060009150905080600001805461014f90610cc1565b80601f016020809104026020016040519081016040528092919081815260200182805461017b90610cc1565b80156101c85780601f1061019d576101008083540402835291602001916101c8565b820191906000526020600020905b8154815290600101906020018083116101ab57829003601f168201915b5050505050908060010180546101dd90610cc1565b80601f016020809104026020016040519081016040528092919081815260200182805461020990610cc1565b80156102565780601f1061022b57610100808354040283529160200191610256565b820191906000526020600020905b81548152906001019060200180831161023957829003601f168201915b50505050509080600201805461026b90610cc1565b80601f016020809104026020016040519081016040528092919081815260200182805461029790610cc1565b80156102e45780601f106102b9576101008083540402835291602001916102e4565b820191906000526020600020905b8154815290600101906020018083116102c757829003601f168201915b5050505050908060030154905084565b60005481565b6000600160003373ffffffffffffffffffffffffffffffffffffffff1673ffffffffffffffffffffffffffffffffffffffff168152602001908152602001600020600301541461037f576040517f08c379a000000000000000000000000000000000000000000000000000000000815260040161037690610d3e565b60405180910390fd5b604051806080016040528085815260200184815260200183815260200182815250600160003373ffffffffffffffffffffffffffffffffffffffff1673ffffffffffffffffffffffffffffffffffffffff16815260200190815260200160002060008201518160000190816103f49190610f0a565b50602082015181600101908161040a9190610f0a565b5060408201518160020190816104209190610f0a565b50606082015181600301559050506000808154809291906104409061100b565b919050555050505050565b6104536107a5565b600160003373ffffffffffffffffffffffffffffffffffffffff1673ffffffffffffffffffffffffffffffffffffffff1681526020019081526020016000206040518060800160405290816000820180546104ad90610cc1565b80601f01602080910402602001604051908101604052809291908181526020018280546104d990610cc1565b80156105265780601f106104fb57610100808354040283529160200191610526565b820191906000526020600020905b81548152906001019060200180831161050957829003601f168201915b5050505050815260200160018201805461053f90610cc1565b80601f016020809104026020016040519081016040528092919081815260200182805461056b90610cc1565b80156105b85780601f1061058d576101008083540402835291602001916105b8565b820191906000526020600020905b81548152906001019060200180831161059b57829003601f168201915b505050505081526020016002820180546105d190610cc1565b80601f01602080910402602001604051908101604052809291908181526020018280546105fd90610cc1565b801561064a5780601f1061061f5761010080835404028352916020019161064a565b820191906000526020600020905b81548152906001019060200180831161062d57829003601f168201915b50505050508152602001600382015481525050905090565b6000600160003373ffffffffffffffffffffffffffffffffffffffff1673ffffffffffffffffffffffffffffffffffffffff16815260200190815260200160002060030154036106e7576040517f08c379a00000000000000000000000000000000000000000000000000000000081526004016106de9061109f565b60405180910390fd5b604051806080016040528085815260200184815260200183815260200182815250600160003373ffffffffffffffffffffffffffffffffffffffff1673ffffffffffffffffffffffffffffffffffffffff168152602001908152602001600020600082015181600001908161075c9190610f0a565b5060208201518160010190816107729190610f0a565b5060408201518160020190816107889190610f0a565b506060820151816003015590505050505050565b60008054905090565b6040518060800160405280606081526020016060815260200160608152602001600081525090565b6000604051905090565b600080fd5b600080fd5b600073ffffffffffffffffffffffffffffffffffffffff82169050919050565b600061080c826107e1565b9050919050565b61081c81610801565b811461082757600080fd5b50565b60008135905061083981610813565b92915050565b600060208284031215610855576108546107d7565b5b60006108638482850161082a565b91505092915050565b600081519050919050565b600082825260208201905092915050565b60005b838110156108a657808201518184015260208101905061088b565b60008484015250505050565b6000601f19601f8301169050919050565b60006108ce8261086c565b6108d88185610877565b93506108e8818560208601610888565b6108f1816108b2565b840191505092915050565b6000819050919050565b61090f816108fc565b82525050565b6000608082019050818103600083015261092f81876108c3565b9050818103602083015261094381866108c3565b9050818103604083015261095781856108c3565b90506109666060830184610906565b95945050505050565b60006020820190506109846000830184610906565b92915050565b600080fd5b600080fd5b7f4e487b7100000000000000000000000000000000000000000000000000000000600052604160045260246000fd5b6109cc826108b2565b810181811067ffffffffffffffff821117156109eb576109ea610994565b5b80604052505050565b60006109fe6107cd565b9050610a0a82826109c3565b919050565b600067ffffffffffffffff821115610a2a57610a29610994565b5b610a33826108b2565b9050602081019050919050565b82818337600083830152505050565b6000610a62610a5d84610a0f565b6109f4565b905082815260208101848484011115610a7e57610a7d61098f565b5b610a89848285610a40565b509392505050565b600082601f830112610aa657610aa561098a565b5b8135610ab6848260208601610a4f565b91505092915050565b610ac8816108fc565b8114610ad357600080fd5b50565b600081359050610ae581610abf565b92915050565b60008060008060808587031215610b0557610b046107d7565b5b600085013567ffffffffffffffff811115610b2357610b226107dc565b5b610b2f87828801610a91565b945050602085013567ffffffffffffffff811115610b5057610b4f6107dc565b5b610b5c87828801610a91565b935050604085013567ffffffffffffffff811115610b7d57610b7c6107dc565b5b610b8987828801610a91565b9250506060610b9a87828801610ad6565b91505092959194509250565b600082825260208201905092915050565b6000610bc28261086c565b610bcc8185610ba6565b9350610bdc818560208601610888565b610be5816108b2565b840191505092915050565b610bf9816108fc565b82525050565b60006080830160008301518482036000860152610c1c8282610bb7565b91505060208301518482036020860152610c368282610bb7565b91505060408301518482036040860152610c508282610bb7565b9150506060830151610c656060860182610bf0565b508091505092915050565b60006020820190508181036000830152610c8a8184610bff565b905092915050565b7f4e487b7100000000000000000000000000000000000000000000000000000000600052602260045260246000fd5b60006002820490506001821680610cd957607f821691505b602082108103610cec57610ceb610c92565b5b50919050565b7f5573657220616c72656164792065786973747300000000000000000000000000600082015250565b6000610d28601383610877565b9150610d3382610cf2565b602082019050919050565b60006020820190508181036000830152610d5781610d1b565b9050919050565b60008190508160005260206000209050919050565b60006020601f8301049050919050565b600082821b905092915050565b600060088302610dc07fffffffffffffffffffffffffffffffffffffffffffffffffffffffffffffffff82610d83565b610dca8683610d83565b95508019841693508086168417925050509392505050565b6000819050919050565b6000610e07610e02610dfd846108fc565b610de2565b6108fc565b9050919050565b6000819050919050565b610e2183610dec565b610e35610e2d82610e0e565b848454610d90565b825550505050565b600090565b610e4a610e3d565b610e55818484610e18565b505050565b5b81811015610e7957610e6e600082610e42565b600181019050610e5b565b5050565b601f821115610ebe57610e8f81610d5e565b610e9884610d73565b81016020851015610ea7578190505b610ebb610eb385610d73565b830182610e5a565b50505b505050565b600082821c905092915050565b6000610ee160001984600802610ec3565b1980831691505092915050565b6000610efa8383610ed0565b9150826002028217905092915050565b610f138261086c565b67ffffffffffffffff811115610f2c57610f2b610994565b5b610f368254610cc1565b610f41828285610e7d565b600060209050601f831160018114610f745760008415610f62578287015190505b610f6c8582610eee565b865550610fd4565b601f198416610f8286610d5e565b60005b82811015610faa57848901518255600182019150602085019450602081019050610f85565b86831015610fc75784890151610fc3601f891682610ed0565b8355505b6001600288020188555050505b505050505050565b7f4e487b7100000000000000000000000000000000000000000000000000000000600052601160045260246000fd5b6000611016826108fc565b91507fffffffffffffffffffffffffffffffffffffffffffffffffffffffffffffffff820361104857611047610fdc565b5b600182019050919050565b7f5573657220646f6573206e6f7420657869737400000000000000000000000000600082015250565b6000611089601383610877565b915061109482611053565b602082019050919050565b600060208201905081810360008301526110b88161107c565b905091905056fea26469706673582212208af7de694c26549156bf9c413f41d87b4df2ed0d17ee62e1d90e49aa8f57c11864736f6c63430008110033",
  "immutableReferences": {},
  "source": "// SPDX-License-Identifier: MIT\r\npragma solidity ^0.8.17;\r\n\r\ncontract Users {\r\n\r\n    uint public _userCount = 0;\r\n\r\n    struct User {\r\n        string _firstname;\r\n        string _lastname;\r\n        string _email;\r\n        uint _age;\r\n    }\r\n\r\n    mapping(address => User) public _users;\r\n\r\n    function addUser(string memory _firstname, string memory _lastname, string memory _email, uint _age) public {\r\n        // Add user to the mapping only if the user does not exist\r\n        require(_users[msg.sender]._age == 0, \"User already exists\");\r\n        _users[msg.sender] = User(_firstname, _lastname, _email, _age);\r\n        _userCount++;\r\n    }\r\n\r\n    function modifyUser(string memory _firstname, string memory _lastname, string memory _email, uint _age) public {\r\n        // Add user to the mapping only if the user does not exist\r\n        require(_users[msg.sender]._age != 0, \"User does not exist\");\r\n        _users[msg.sender] = User(_firstname, _lastname, _email, _age);\r\n    }\r\n\r\n    function getUser() public view returns (User memory) {\r\n        return _users[msg.sender];\r\n    }\r\n\r\n    function getUserCount() public view returns (uint) {\r\n        return _userCount;\r\n    }\r\n}",
  "sourcePath": "D:\\TS\\t 2023\\MGL850\\ChainConnectMGL850\\truffle\\contracts\\users.sol",
  "compiler": {
    "name": "solc",
    "version": "0.8.17+commit.8df45f5f.Emscripten.clang"
  },
  "schemaVersion": "3.4.14",
  "updatedAt": "2023-08-02T16:35:32.626Z",
  "networkType": "ethereum",
  "devdoc": {
    "kind": "dev",
    "methods": {},
    "version": 1
  },
  "userdoc": {
    "kind": "user",
    "methods": {},
    "version": 1
  }
}