{
  "contractName": "Users",
  "abi": [
    {
      "inputs": [],
      "name": "_userCount",
      "outputs": [
        {
          "internalType": "uint256",
          "name": "",
          "type": "uint256"
        }
      ],
      "stateMutability": "view",
      "type": "function",
      "constant": true
    },
    {
      "inputs": [
        {
          "internalType": "address",
          "name": "",
          "type": "address"
        }
      ],
      "name": "_users",
      "outputs": [
        {
          "internalType": "string",
          "name": "_firstname",
          "type": "string"
        },
        {
          "internalType": "string",
          "name": "_lastname",
          "type": "string"
        },
        {
          "internalType": "string",
          "name": "_email",
          "type": "string"
        },
        {
          "internalType": "uint256",
          "name": "_age",
          "type": "uint256"
        }
      ],
      "stateMutability": "view",
      "type": "function",
      "constant": true
    },
    {
      "inputs": [
        {
          "internalType": "address",
          "name": "_user",
          "type": "address"
        },
        {
          "internalType": "string",
          "name": "_firstname",
          "type": "string"
        },
        {
          "internalType": "string",
          "name": "_lastname",
          "type": "string"
        },
        {
          "internalType": "string",
          "name": "_email",
          "type": "string"
        },
        {
          "internalType": "uint256",
          "name": "_age",
          "type": "uint256"
        }
      ],
      "name": "addUser",
      "outputs": [],
      "stateMutability": "nonpayable",
      "type": "function"
    },
    {
      "inputs": [
        {
          "internalType": "address",
          "name": "_user",
          "type": "address"
        }
      ],
      "name": "getUser",
      "outputs": [
        {
          "components": [
            {
              "internalType": "string",
              "name": "_firstname",
              "type": "string"
            },
            {
              "internalType": "string",
              "name": "_lastname",
              "type": "string"
            },
            {
              "internalType": "string",
              "name": "_email",
              "type": "string"
            },
            {
              "internalType": "uint256",
              "name": "_age",
              "type": "uint256"
            }
          ],
          "internalType": "struct Users.User",
          "name": "",
          "type": "tuple"
        }
      ],
      "stateMutability": "view",
      "type": "function",
      "constant": true
    }
  ],
  "bytecode": "0x60806040526000805534801561001457600080fd5b50610e2e806100246000396000f3fe608060405234801561001057600080fd5b506004361061004c5760003560e01c80633cacd7d6146100515780634f7484fe146100845780636f77926b146100a2578063c3dc3e95146100d2575b600080fd5b61006b6004803603810190610066919061063c565b6100ee565b60405161007b9493929190610712565b60405180910390f35b61008c6102b6565b604051610099919061076c565b60405180910390f35b6100bc60048036038101906100b7919061063c565b6102bc565b6040516100c99190610851565b60405180910390f35b6100ec60048036038101906100e791906109d4565b6104d5565b005b600160205280600052604060002060009150905080600001805461011190610ad2565b80601f016020809104026020016040519081016040528092919081815260200182805461013d90610ad2565b801561018a5780601f1061015f5761010080835404028352916020019161018a565b820191906000526020600020905b81548152906001019060200180831161016d57829003601f168201915b50505050509080600101805461019f90610ad2565b80601f01602080910402602001604051908101604052809291908181526020018280546101cb90610ad2565b80156102185780601f106101ed57610100808354040283529160200191610218565b820191906000526020600020905b8154815290600101906020018083116101fb57829003601f168201915b50505050509080600201805461022d90610ad2565b80601f016020809104026020016040519081016040528092919081815260200182805461025990610ad2565b80156102a65780601f1061027b576101008083540402835291602001916102a6565b820191906000526020600020905b81548152906001019060200180831161028957829003601f168201915b5050505050908060030154905084565b60005481565b6102c46105a2565b600160008373ffffffffffffffffffffffffffffffffffffffff1673ffffffffffffffffffffffffffffffffffffffff16815260200190815260200160002060405180608001604052908160008201805461031e90610ad2565b80601f016020809104026020016040519081016040528092919081815260200182805461034a90610ad2565b80156103975780601f1061036c57610100808354040283529160200191610397565b820191906000526020600020905b81548152906001019060200180831161037a57829003601f168201915b505050505081526020016001820180546103b090610ad2565b80601f01602080910402602001604051908101604052809291908181526020018280546103dc90610ad2565b80156104295780601f106103fe57610100808354040283529160200191610429565b820191906000526020600020905b81548152906001019060200180831161040c57829003601f168201915b5050505050815260200160028201805461044290610ad2565b80601f016020809104026020016040519081016040528092919081815260200182805461046e90610ad2565b80156104bb5780601f10610490576101008083540402835291602001916104bb565b820191906000526020600020905b81548152906001019060200180831161049e57829003601f168201915b505050505081526020016003820154815250509050919050565b604051806080016040528085815260200184815260200183815260200182815250600160008773ffffffffffffffffffffffffffffffffffffffff1673ffffffffffffffffffffffffffffffffffffffff168152602001908152602001600020600082015181600001908161054a9190610caf565b5060208201518160010190816105609190610caf565b5060408201518160020190816105769190610caf565b506060820151816003015590505060008081548092919061059690610db0565b91905055505050505050565b6040518060800160405280606081526020016060815260200160608152602001600081525090565b6000604051905090565b600080fd5b600080fd5b600073ffffffffffffffffffffffffffffffffffffffff82169050919050565b6000610609826105de565b9050919050565b610619816105fe565b811461062457600080fd5b50565b60008135905061063681610610565b92915050565b600060208284031215610652576106516105d4565b5b600061066084828501610627565b91505092915050565b600081519050919050565b600082825260208201905092915050565b60005b838110156106a3578082015181840152602081019050610688565b60008484015250505050565b6000601f19601f8301169050919050565b60006106cb82610669565b6106d58185610674565b93506106e5818560208601610685565b6106ee816106af565b840191505092915050565b6000819050919050565b61070c816106f9565b82525050565b6000608082019050818103600083015261072c81876106c0565b9050818103602083015261074081866106c0565b9050818103604083015261075481856106c0565b90506107636060830184610703565b95945050505050565b60006020820190506107816000830184610703565b92915050565b600082825260208201905092915050565b60006107a382610669565b6107ad8185610787565b93506107bd818560208601610685565b6107c6816106af565b840191505092915050565b6107da816106f9565b82525050565b600060808301600083015184820360008601526107fd8282610798565b915050602083015184820360208601526108178282610798565b915050604083015184820360408601526108318282610798565b915050606083015161084660608601826107d1565b508091505092915050565b6000602082019050818103600083015261086b81846107e0565b905092915050565b600080fd5b600080fd5b7f4e487b7100000000000000000000000000000000000000000000000000000000600052604160045260246000fd5b6108b5826106af565b810181811067ffffffffffffffff821117156108d4576108d361087d565b5b80604052505050565b60006108e76105ca565b90506108f382826108ac565b919050565b600067ffffffffffffffff8211156109135761091261087d565b5b61091c826106af565b9050602081019050919050565b82818337600083830152505050565b600061094b610946846108f8565b6108dd565b90508281526020810184848401111561096757610966610878565b5b610972848285610929565b509392505050565b600082601f83011261098f5761098e610873565b5b813561099f848260208601610938565b91505092915050565b6109b1816106f9565b81146109bc57600080fd5b50565b6000813590506109ce816109a8565b92915050565b600080600080600060a086880312156109f0576109ef6105d4565b5b60006109fe88828901610627565b955050602086013567ffffffffffffffff811115610a1f57610a1e6105d9565b5b610a2b8882890161097a565b945050604086013567ffffffffffffffff811115610a4c57610a4b6105d9565b5b610a588882890161097a565b935050606086013567ffffffffffffffff811115610a7957610a786105d9565b5b610a858882890161097a565b9250506080610a96888289016109bf565b9150509295509295909350565b7f4e487b7100000000000000000000000000000000000000000000000000000000600052602260045260246000fd5b60006002820490506001821680610aea57607f821691505b602082108103610afd57610afc610aa3565b5b50919050565b60008190508160005260206000209050919050565b60006020601f8301049050919050565b600082821b905092915050565b600060088302610b657fffffffffffffffffffffffffffffffffffffffffffffffffffffffffffffffff82610b28565b610b6f8683610b28565b95508019841693508086168417925050509392505050565b6000819050919050565b6000610bac610ba7610ba2846106f9565b610b87565b6106f9565b9050919050565b6000819050919050565b610bc683610b91565b610bda610bd282610bb3565b848454610b35565b825550505050565b600090565b610bef610be2565b610bfa818484610bbd565b505050565b5b81811015610c1e57610c13600082610be7565b600181019050610c00565b5050565b601f821115610c6357610c3481610b03565b610c3d84610b18565b81016020851015610c4c578190505b610c60610c5885610b18565b830182610bff565b50505b505050565b600082821c905092915050565b6000610c8660001984600802610c68565b1980831691505092915050565b6000610c9f8383610c75565b9150826002028217905092915050565b610cb882610669565b67ffffffffffffffff811115610cd157610cd061087d565b5b610cdb8254610ad2565b610ce6828285610c22565b600060209050601f831160018114610d195760008415610d07578287015190505b610d118582610c93565b865550610d79565b601f198416610d2786610b03565b60005b82811015610d4f57848901518255600182019150602085019450602081019050610d2a565b86831015610d6c5784890151610d68601f891682610c75565b8355505b6001600288020188555050505b505050505050565b7f4e487b7100000000000000000000000000000000000000000000000000000000600052601160045260246000fd5b6000610dbb826106f9565b91507fffffffffffffffffffffffffffffffffffffffffffffffffffffffffffffffff8203610ded57610dec610d81565b5b60018201905091905056fea2646970667358221220ef4cadcfa3597206a3abcce1da7622fa9ddef99de91124111edf50d0c24bbd2664736f6c63430008110033",
  "immutableReferences": {},
  "source": "// SPDX-License-Identifier: MIT\r\npragma solidity ^0.8.17;\r\n\r\ncontract Users {\r\n\r\n    uint public _userCount = 0;\r\n\r\n    struct User {\r\n        string _firstname;\r\n        string _lastname;\r\n        string _email;\r\n        uint _age;\r\n    }\r\n\r\n    mapping(address => User) public _users;\r\n\r\n    function addUser(address _user, string memory _firstname, string memory _lastname, string memory _email, uint _age) public {\r\n        _users[_user] = User(_firstname, _lastname, _email, _age);\r\n        _userCount++;\r\n    }\r\n\r\n    function getUser(address _user) public view returns (User memory) {\r\n        return _users[_user];\r\n    }\r\n}",
  "sourcePath": "D:\\TS\\t 2023\\MGL850\\ChainConnectMGL850\\truffle\\contracts\\users.sol",
  "compiler": {
    "name": "solc",
    "version": "0.8.17+commit.8df45f5f.Emscripten.clang"
  },
  "schemaVersion": "3.4.14",
  "updatedAt": "2023-08-01T19:40:48.131Z",
  "networkType": "ethereum",
  "devdoc": {
    "kind": "dev",
    "methods": {},
    "version": 1
  },
  "userdoc": {
    "kind": "user",
    "methods": {},
    "version": 1
  }
}