{
  "contractName": "Users",
  "abi": [
    {
      "inputs": [
        {
          "internalType": "address",
          "name": "_user",
          "type": "address"
        },
        {
          "internalType": "string",
          "name": "_firstname",
          "type": "string"
        },
        {
          "internalType": "string",
          "name": "_lastname",
          "type": "string"
        },
        {
          "internalType": "string",
          "name": "_email",
          "type": "string"
        },
        {
          "internalType": "uint256",
          "name": "_age",
          "type": "uint256"
        }
      ],
      "name": "addUser",
      "outputs": [],
      "stateMutability": "nonpayable",
      "type": "function"
    },
    {
      "inputs": [
        {
          "internalType": "address",
          "name": "_address",
          "type": "address"
        }
      ],
      "name": "getUser",
      "outputs": [
        {
          "components": [
            {
              "internalType": "address",
              "name": "_address",
              "type": "address"
            },
            {
              "internalType": "string",
              "name": "_firstname",
              "type": "string"
            },
            {
              "internalType": "string",
              "name": "_lastname",
              "type": "string"
            },
            {
              "internalType": "string",
              "name": "_email",
              "type": "string"
            },
            {
              "internalType": "uint256",
              "name": "_age",
              "type": "uint256"
            }
          ],
          "internalType": "struct Users.User",
          "name": "",
          "type": "tuple"
        }
      ],
      "stateMutability": "view",
      "type": "function",
      "constant": true
    }
  ],
  "bytecode": "0x608060405234801561001057600080fd5b50610e1a806100206000396000f3fe608060405234801561001057600080fd5b50600436106100365760003560e01c80636f77926b1461003b578063c3dc3e951461006b575b600080fd5b61005560048036038101906100509190610662565b610087565b60405161006291906107cb565b60405180910390f35b6100856004803603810190610080919061094e565b6103c4565b005b61008f6105ab565b3373ffffffffffffffffffffffffffffffffffffffff166000803373ffffffffffffffffffffffffffffffffffffffff1673ffffffffffffffffffffffffffffffffffffffff16815260200190815260200160002060000160009054906101000a900473ffffffffffffffffffffffffffffffffffffffff1673ffffffffffffffffffffffffffffffffffffffff161461015e576040517f08c379a000000000000000000000000000000000000000000000000000000000815260040161015590610a7a565b60405180910390fd5b6000808373ffffffffffffffffffffffffffffffffffffffff1673ffffffffffffffffffffffffffffffffffffffff1681526020019081526020016000206040518060a00160405290816000820160009054906101000a900473ffffffffffffffffffffffffffffffffffffffff1673ffffffffffffffffffffffffffffffffffffffff1673ffffffffffffffffffffffffffffffffffffffff16815260200160018201805461020d90610ac9565b80601f016020809104026020016040519081016040528092919081815260200182805461023990610ac9565b80156102865780601f1061025b57610100808354040283529160200191610286565b820191906000526020600020905b81548152906001019060200180831161026957829003601f168201915b5050505050815260200160028201805461029f90610ac9565b80601f01602080910402602001604051908101604052809291908181526020018280546102cb90610ac9565b80156103185780601f106102ed57610100808354040283529160200191610318565b820191906000526020600020905b8154815290600101906020018083116102fb57829003601f168201915b5050505050815260200160038201805461033190610ac9565b80601f016020809104026020016040519081016040528092919081815260200182805461035d90610ac9565b80156103aa5780601f1061037f576101008083540402835291602001916103aa565b820191906000526020600020905b81548152906001019060200180831161038d57829003601f168201915b505050505081526020016004820154815250509050919050565b8473ffffffffffffffffffffffffffffffffffffffff166000808773ffffffffffffffffffffffffffffffffffffffff1673ffffffffffffffffffffffffffffffffffffffff16815260200190815260200160002060000160009054906101000a900473ffffffffffffffffffffffffffffffffffffffff1673ffffffffffffffffffffffffffffffffffffffff1603610493576040517f08c379a000000000000000000000000000000000000000000000000000000000815260040161048a90610b46565b60405180910390fd5b6040518060a001604052808673ffffffffffffffffffffffffffffffffffffffff168152602001858152602001848152602001838152602001828152506000803373ffffffffffffffffffffffffffffffffffffffff1673ffffffffffffffffffffffffffffffffffffffff16815260200190815260200160002060008201518160000160006101000a81548173ffffffffffffffffffffffffffffffffffffffff021916908373ffffffffffffffffffffffffffffffffffffffff160217905550602082015181600101908161056a9190610d12565b5060408201518160020190816105809190610d12565b5060608201518160030190816105969190610d12565b50608082015181600401559050505050505050565b6040518060a00160405280600073ffffffffffffffffffffffffffffffffffffffff168152602001606081526020016060815260200160608152602001600081525090565b6000604051905090565b600080fd5b600080fd5b600073ffffffffffffffffffffffffffffffffffffffff82169050919050565b600061062f82610604565b9050919050565b61063f81610624565b811461064a57600080fd5b50565b60008135905061065c81610636565b92915050565b600060208284031215610678576106776105fa565b5b60006106868482850161064d565b91505092915050565b61069881610624565b82525050565b600081519050919050565b600082825260208201905092915050565b60005b838110156106d85780820151818401526020810190506106bd565b60008484015250505050565b6000601f19601f8301169050919050565b60006107008261069e565b61070a81856106a9565b935061071a8185602086016106ba565b610723816106e4565b840191505092915050565b6000819050919050565b6107418161072e565b82525050565b600060a08301600083015161075f600086018261068f565b506020830151848203602086015261077782826106f5565b9150506040830151848203604086015261079182826106f5565b915050606083015184820360608601526107ab82826106f5565b91505060808301516107c06080860182610738565b508091505092915050565b600060208201905081810360008301526107e58184610747565b905092915050565b600080fd5b600080fd5b7f4e487b7100000000000000000000000000000000000000000000000000000000600052604160045260246000fd5b61082f826106e4565b810181811067ffffffffffffffff8211171561084e5761084d6107f7565b5b80604052505050565b60006108616105f0565b905061086d8282610826565b919050565b600067ffffffffffffffff82111561088d5761088c6107f7565b5b610896826106e4565b9050602081019050919050565b82818337600083830152505050565b60006108c56108c084610872565b610857565b9050828152602081018484840111156108e1576108e06107f2565b5b6108ec8482856108a3565b509392505050565b600082601f830112610909576109086107ed565b5b81356109198482602086016108b2565b91505092915050565b61092b8161072e565b811461093657600080fd5b50565b60008135905061094881610922565b92915050565b600080600080600060a0868803121561096a576109696105fa565b5b60006109788882890161064d565b955050602086013567ffffffffffffffff811115610999576109986105ff565b5b6109a5888289016108f4565b945050604086013567ffffffffffffffff8111156109c6576109c56105ff565b5b6109d2888289016108f4565b935050606086013567ffffffffffffffff8111156109f3576109f26105ff565b5b6109ff888289016108f4565b9250506080610a1088828901610939565b9150509295509295909350565b600082825260208201905092915050565b7f596f7520617265206e6f7420616c6c6f7765642e000000000000000000000000600082015250565b6000610a64601483610a1d565b9150610a6f82610a2e565b602082019050919050565b60006020820190508181036000830152610a9381610a57565b9050919050565b7f4e487b7100000000000000000000000000000000000000000000000000000000600052602260045260246000fd5b60006002820490506001821680610ae157607f821691505b602082108103610af457610af3610a9a565b5b50919050565b7f5573657220616c7265616479206578697374732e000000000000000000000000600082015250565b6000610b30601483610a1d565b9150610b3b82610afa565b602082019050919050565b60006020820190508181036000830152610b5f81610b23565b9050919050565b60008190508160005260206000209050919050565b60006020601f8301049050919050565b600082821b905092915050565b600060088302610bc87fffffffffffffffffffffffffffffffffffffffffffffffffffffffffffffffff82610b8b565b610bd28683610b8b565b95508019841693508086168417925050509392505050565b6000819050919050565b6000610c0f610c0a610c058461072e565b610bea565b61072e565b9050919050565b6000819050919050565b610c2983610bf4565b610c3d610c3582610c16565b848454610b98565b825550505050565b600090565b610c52610c45565b610c5d818484610c20565b505050565b5b81811015610c8157610c76600082610c4a565b600181019050610c63565b5050565b601f821115610cc657610c9781610b66565b610ca084610b7b565b81016020851015610caf578190505b610cc3610cbb85610b7b565b830182610c62565b50505b505050565b600082821c905092915050565b6000610ce960001984600802610ccb565b1980831691505092915050565b6000610d028383610cd8565b9150826002028217905092915050565b610d1b8261069e565b67ffffffffffffffff811115610d3457610d336107f7565b5b610d3e8254610ac9565b610d49828285610c85565b600060209050601f831160018114610d7c5760008415610d6a578287015190505b610d748582610cf6565b865550610ddc565b601f198416610d8a86610b66565b60005b82811015610db257848901518255600182019150602085019450602081019050610d8d565b86831015610dcf5784890151610dcb601f891682610cd8565b8355505b6001600288020188555050505b50505050505056fea2646970667358221220eb2e7d5040ba87640a276002d249fb0ebd8c70ab973b69bc866db10372094ab264736f6c63430008110033",
  "immutableReferences": {},
  "source": "// SPDX-License-Identifier: MIT\r\npragma solidity ^0.8.17;\r\n\r\ncontract Users {\r\n\r\n    struct User {\r\n        address _address;\r\n        string _firstname;\r\n        string _lastname;\r\n        string _email;\r\n        uint _age;\r\n    }\r\n\r\n    mapping(address => User) _users;    \r\n\r\n    function addUser(address _user, string memory _firstname, string memory _lastname, string memory _email, uint _age) public {\r\n        // Add the user only if it doesn't exist\r\n        require(_users[_user]._address != _user, \"User already exists.\");\r\n        _users[msg.sender] = User(_user, _firstname, _lastname, _email, _age);\r\n    }\r\n\r\n    function getUser(address _address) public view returns (User memory) {\r\n        // Seul l'utilisateur peut voir ses informations\r\n        require(_users[msg.sender]._address == msg.sender , \"You are not allowed.\");\r\n        return _users[_address];\r\n    }\r\n\r\n}",
  "sourcePath": "D:\\TS\\t 2023\\MGL850\\ChainConnectMGL850\\truffle\\contracts\\users.sol",
  "compiler": {
    "name": "solc",
    "version": "0.8.17+commit.8df45f5f.Emscripten.clang"
  },
  "schemaVersion": "3.4.14",
  "updatedAt": "2023-07-29T20:20:40.318Z",
  "networkType": "ethereum",
  "devdoc": {
    "kind": "dev",
    "methods": {},
    "version": 1
  },
  "userdoc": {
    "kind": "user",
    "methods": {},
    "version": 1
  }
}