{
  "contractName": "Users",
  "abi": [
    {
      "inputs": [],
      "name": "_userCount",
      "outputs": [
        {
          "internalType": "uint256",
          "name": "",
          "type": "uint256"
        }
      ],
      "stateMutability": "view",
      "type": "function",
      "constant": true
    },
    {
      "inputs": [
        {
          "internalType": "string",
          "name": "_firstname",
          "type": "string"
        },
        {
          "internalType": "string",
          "name": "_lastname",
          "type": "string"
        },
        {
          "internalType": "string",
          "name": "_email",
          "type": "string"
        },
        {
          "internalType": "uint256",
          "name": "_age",
          "type": "uint256"
        }
      ],
      "name": "addUser",
      "outputs": [],
      "stateMutability": "nonpayable",
      "type": "function"
    },
    {
      "inputs": [
        {
          "internalType": "string",
          "name": "_firstname",
          "type": "string"
        },
        {
          "internalType": "string",
          "name": "_lastname",
          "type": "string"
        },
        {
          "internalType": "string",
          "name": "_email",
          "type": "string"
        },
        {
          "internalType": "uint256",
          "name": "_age",
          "type": "uint256"
        }
      ],
      "name": "modifyUser",
      "outputs": [],
      "stateMutability": "nonpayable",
      "type": "function"
    },
    {
      "inputs": [],
      "name": "deleteUser",
      "outputs": [],
      "stateMutability": "nonpayable",
      "type": "function"
    },
    {
      "inputs": [
        {
          "internalType": "address",
          "name": "_user",
          "type": "address"
        }
      ],
      "name": "getUser",
      "outputs": [
        {
          "components": [
            {
              "internalType": "string",
              "name": "_firstname",
              "type": "string"
            },
            {
              "internalType": "string",
              "name": "_lastname",
              "type": "string"
            },
            {
              "internalType": "string",
              "name": "_email",
              "type": "string"
            },
            {
              "internalType": "uint256",
              "name": "_age",
              "type": "uint256"
            }
          ],
          "internalType": "struct Users.User",
          "name": "",
          "type": "tuple"
        }
      ],
      "stateMutability": "view",
      "type": "function",
      "constant": true
    },
    {
      "inputs": [],
      "name": "getUserCount",
      "outputs": [
        {
          "internalType": "uint256",
          "name": "",
          "type": "uint256"
        }
      ],
      "stateMutability": "view",
      "type": "function",
      "constant": true
    }
  ],
  "bytecode": "0x60806040526000805534801561001457600080fd5b50611205806100246000396000f3fe608060405234801561001057600080fd5b50600436106100625760003560e01c8063026ff05e146100675780634f7484fe146100715780636f77926b1461008f5780637de60fb9146100bf57806389a8f927146100db578063b5cb15f7146100f7575b600080fd5b61006f610115565b005b6100796102fe565b60405161008691906108ce565b60405180910390f35b6100a960048036038101906100a4919061095b565b610304565b6040516100b69190610a98565b60405180910390f35b6100d960048036038101906100d49190610c1b565b61051d565b005b6100f560048036038101906100f09190610c1b565b6106dc565b005b6100ff610884565b60405161010c91906108ce565b60405180910390f35b3273ffffffffffffffffffffffffffffffffffffffff163373ffffffffffffffffffffffffffffffffffffffff1614610183576040517f08c379a000000000000000000000000000000000000000000000000000000000815260040161017a90610d59565b60405180910390fd5b6000600160003373ffffffffffffffffffffffffffffffffffffffff1673ffffffffffffffffffffffffffffffffffffffff1681526020019081526020016000206003015403610208576040517f08c379a00000000000000000000000000000000000000000000000000000000081526004016101ff90610dc5565b60405180910390fd5b60405180608001604052806040518060200160405280600081525081526020016040518060200160405280600081525081526020016040518060200160405280600081525081526020016000815250600160003373ffffffffffffffffffffffffffffffffffffffff1673ffffffffffffffffffffffffffffffffffffffff16815260200190815260200160002060008201518160000190816102ab9190610ff1565b5060208201518160010190816102c19190610ff1565b5060408201518160020190816102d79190610ff1565b50606082015181600301559050506000808154809291906102f7906110f2565b9190505550565b60005481565b61030c61088d565b600160008373ffffffffffffffffffffffffffffffffffffffff1673ffffffffffffffffffffffffffffffffffffffff16815260200190815260200160002060405180608001604052908160008201805461036690610e14565b80601f016020809104026020016040519081016040528092919081815260200182805461039290610e14565b80156103df5780601f106103b4576101008083540402835291602001916103df565b820191906000526020600020905b8154815290600101906020018083116103c257829003601f168201915b505050505081526020016001820180546103f890610e14565b80601f016020809104026020016040519081016040528092919081815260200182805461042490610e14565b80156104715780601f1061044657610100808354040283529160200191610471565b820191906000526020600020905b81548152906001019060200180831161045457829003601f168201915b5050505050815260200160028201805461048a90610e14565b80601f01602080910402602001604051908101604052809291908181526020018280546104b690610e14565b80156105035780601f106104d857610100808354040283529160200191610503565b820191906000526020600020905b8154815290600101906020018083116104e657829003601f168201915b505050505081526020016003820154815250509050919050565b3273ffffffffffffffffffffffffffffffffffffffff163373ffffffffffffffffffffffffffffffffffffffff161461058b576040517f08c379a000000000000000000000000000000000000000000000000000000000815260040161058290610d59565b60405180910390fd5b6000600160003373ffffffffffffffffffffffffffffffffffffffff1673ffffffffffffffffffffffffffffffffffffffff1681526020019081526020016000206003015414610610576040517f08c379a000000000000000000000000000000000000000000000000000000000815260040161060790611167565b60405180910390fd5b604051806080016040528085815260200184815260200183815260200182815250600160003373ffffffffffffffffffffffffffffffffffffffff1673ffffffffffffffffffffffffffffffffffffffff16815260200190815260200160002060008201518160000190816106859190610ff1565b50602082015181600101908161069b9190610ff1565b5060408201518160020190816106b19190610ff1565b50606082015181600301559050506000808154809291906106d190611187565b919050555050505050565b3273ffffffffffffffffffffffffffffffffffffffff163373ffffffffffffffffffffffffffffffffffffffff161461074a576040517f08c379a000000000000000000000000000000000000000000000000000000000815260040161074190610d59565b60405180910390fd5b6000600160003373ffffffffffffffffffffffffffffffffffffffff1673ffffffffffffffffffffffffffffffffffffffff16815260200190815260200160002060030154036107cf576040517f08c379a00000000000000000000000000000000000000000000000000000000081526004016107c690610dc5565b60405180910390fd5b604051806080016040528085815260200184815260200183815260200182815250600160003373ffffffffffffffffffffffffffffffffffffffff1673ffffffffffffffffffffffffffffffffffffffff16815260200190815260200160002060008201518160000190816108449190610ff1565b50602082015181600101908161085a9190610ff1565b5060408201518160020190816108709190610ff1565b506060820151816003015590505050505050565b60008054905090565b6040518060800160405280606081526020016060815260200160608152602001600081525090565b6000819050919050565b6108c8816108b5565b82525050565b60006020820190506108e360008301846108bf565b92915050565b6000604051905090565b600080fd5b600080fd5b600073ffffffffffffffffffffffffffffffffffffffff82169050919050565b6000610928826108fd565b9050919050565b6109388161091d565b811461094357600080fd5b50565b6000813590506109558161092f565b92915050565b600060208284031215610971576109706108f3565b5b600061097f84828501610946565b91505092915050565b600081519050919050565b600082825260208201905092915050565b60005b838110156109c25780820151818401526020810190506109a7565b60008484015250505050565b6000601f19601f8301169050919050565b60006109ea82610988565b6109f48185610993565b9350610a048185602086016109a4565b610a0d816109ce565b840191505092915050565b610a21816108b5565b82525050565b60006080830160008301518482036000860152610a4482826109df565b91505060208301518482036020860152610a5e82826109df565b91505060408301518482036040860152610a7882826109df565b9150506060830151610a8d6060860182610a18565b508091505092915050565b60006020820190508181036000830152610ab28184610a27565b905092915050565b600080fd5b600080fd5b7f4e487b7100000000000000000000000000000000000000000000000000000000600052604160045260246000fd5b610afc826109ce565b810181811067ffffffffffffffff82111715610b1b57610b1a610ac4565b5b80604052505050565b6000610b2e6108e9565b9050610b3a8282610af3565b919050565b600067ffffffffffffffff821115610b5a57610b59610ac4565b5b610b63826109ce565b9050602081019050919050565b82818337600083830152505050565b6000610b92610b8d84610b3f565b610b24565b905082815260208101848484011115610bae57610bad610abf565b5b610bb9848285610b70565b509392505050565b600082601f830112610bd657610bd5610aba565b5b8135610be6848260208601610b7f565b91505092915050565b610bf8816108b5565b8114610c0357600080fd5b50565b600081359050610c1581610bef565b92915050565b60008060008060808587031215610c3557610c346108f3565b5b600085013567ffffffffffffffff811115610c5357610c526108f8565b5b610c5f87828801610bc1565b945050602085013567ffffffffffffffff811115610c8057610c7f6108f8565b5b610c8c87828801610bc1565b935050604085013567ffffffffffffffff811115610cad57610cac6108f8565b5b610cb987828801610bc1565b9250506060610cca87828801610c06565b91505092959194509250565b600082825260208201905092915050565b7f55736572206973206e6f7420746865206f776e6572206f66207468652061636360008201527f6f756e7400000000000000000000000000000000000000000000000000000000602082015250565b6000610d43602483610cd6565b9150610d4e82610ce7565b604082019050919050565b60006020820190508181036000830152610d7281610d36565b9050919050565b7f5573657220646f6573206e6f7420657869737400000000000000000000000000600082015250565b6000610daf601383610cd6565b9150610dba82610d79565b602082019050919050565b60006020820190508181036000830152610dde81610da2565b9050919050565b7f4e487b7100000000000000000000000000000000000000000000000000000000600052602260045260246000fd5b60006002820490506001821680610e2c57607f821691505b602082108103610e3f57610e3e610de5565b5b50919050565b60008190508160005260206000209050919050565b60006020601f8301049050919050565b600082821b905092915050565b600060088302610ea77fffffffffffffffffffffffffffffffffffffffffffffffffffffffffffffffff82610e6a565b610eb18683610e6a565b95508019841693508086168417925050509392505050565b6000819050919050565b6000610eee610ee9610ee4846108b5565b610ec9565b6108b5565b9050919050565b6000819050919050565b610f0883610ed3565b610f1c610f1482610ef5565b848454610e77565b825550505050565b600090565b610f31610f24565b610f3c818484610eff565b505050565b5b81811015610f6057610f55600082610f29565b600181019050610f42565b5050565b601f821115610fa557610f7681610e45565b610f7f84610e5a565b81016020851015610f8e578190505b610fa2610f9a85610e5a565b830182610f41565b50505b505050565b600082821c905092915050565b6000610fc860001984600802610faa565b1980831691505092915050565b6000610fe18383610fb7565b9150826002028217905092915050565b610ffa82610988565b67ffffffffffffffff81111561101357611012610ac4565b5b61101d8254610e14565b611028828285610f64565b600060209050601f83116001811461105b5760008415611049578287015190505b6110538582610fd5565b8655506110bb565b601f19841661106986610e45565b60005b828110156110915784890151825560018201915060208501945060208101905061106c565b868310156110ae57848901516110aa601f891682610fb7565b8355505b6001600288020188555050505b505050505050565b7f4e487b7100000000000000000000000000000000000000000000000000000000600052601160045260246000fd5b60006110fd826108b5565b9150600082036111105761110f6110c3565b5b600182039050919050565b7f5573657220616c72656164792065786973747300000000000000000000000000600082015250565b6000611151601383610cd6565b915061115c8261111b565b602082019050919050565b6000602082019050818103600083015261118081611144565b9050919050565b6000611192826108b5565b91507fffffffffffffffffffffffffffffffffffffffffffffffffffffffffffffffff82036111c4576111c36110c3565b5b60018201905091905056fea2646970667358221220c037cd1caefd8f430aa6f40797e9d2edddbfe6f22f18a8effb34247d56741cc164736f6c63430008110033",
  "immutableReferences": {},
  "source": "// SPDX-License-Identifier: MIT\r\npragma solidity ^0.8.17;\r\n\r\ncontract Users {\r\n\r\n    uint public _userCount = 0;\r\n\r\n    struct User {\r\n        string _firstname;\r\n        string _lastname;\r\n        string _email;\r\n        uint _age;\r\n    }\r\n\r\n    mapping(address => User) private _users;\r\n\r\n    function addUser(string memory _firstname, string memory _lastname, string memory _email, uint _age) public {\r\n        // Add user to the mapping only if the user does not exist\r\n        require(msg.sender == tx.origin, \"User is not the owner of the account\");\r\n        require(_users[msg.sender]._age == 0, \"User already exists\");\r\n        _users[msg.sender] = User(_firstname, _lastname, _email, _age);\r\n        _userCount++;\r\n    }\r\n\r\n    function modifyUser(string memory _firstname, string memory _lastname, string memory _email, uint _age) public {\r\n        // Add user to the mapping only if the user does not exist\r\n        require(msg.sender == tx.origin, \"User is not the owner of the account\");\r\n        require(_users[msg.sender]._age != 0, \"User does not exist\");\r\n        _users[msg.sender] = User(_firstname, _lastname, _email, _age);\r\n    }\r\n\r\n    function deleteUser() public {\r\n        // Remove user from the mapping only if the user exists and if the user is the owner of the account\r\n        require(msg.sender == tx.origin, \"User is not the owner of the account\");\r\n        require(_users[msg.sender]._age != 0, \"User does not exist\");\r\n        _users[msg.sender] = User(\"\", \"\", \"\", 0);\r\n        _userCount--;\r\n    }\r\n\r\n    function getUser(address _user) public view returns (User memory) {\r\n        return _users[_user];\r\n    }\r\n\r\n    function getUserCount() public view returns (uint) {\r\n        return _userCount;\r\n    }\r\n}",
  "sourcePath": "D:\\TS\\t 2023\\MGL850\\ChainConnectMGL850\\truffle\\contracts\\users.sol",
  "compiler": {
    "name": "solc",
    "version": "0.8.17+commit.8df45f5f.Emscripten.clang"
  },
  "schemaVersion": "3.4.14",
  "updatedAt": "2023-08-18T01:00:33.198Z",
  "networkType": "ethereum",
  "devdoc": {
    "kind": "dev",
    "methods": {},
    "version": 1
  },
  "userdoc": {
    "kind": "user",
    "methods": {},
    "version": 1
  }
}